:020000040800F2
:1000000000000320D1200008790900087B090008BE
:100010007D0900087F090008810900080000000030
:10002000000000000000000000000000830900083C
:1000300085090008000000008709000889090008F8
:100040002121000821210008212100082121000888
:100050002121000821210008212100082121000878
:100060002121000821210008212100082121000868
:100070002121000821210008212100082121000858
:100080002121000821210008212100082121000848
:100090002121000821210008212100082121000838
:1000A0002121000821210008212100082121000828
:1000B0002121000821210008212100082121000818
:1000C0002121000821210008212100082121000808
:1000D00021210008212100082121000821210008F8
:1000E00021210008212100082121000821210008E8
:1000F00021210008212100082121000821210008D8
:1001000021210008212100082121000821210008C7
:1001100021210008212100082121000821210008B7
:1001200021210008212100082121000821210008A7
:100130002121000821210008212100082121000897
:100140002121000821210008212100082121000887
:100150002121000821210008212100082121000877
:100160002121000821210008212100082121000867
:1001700021210008212100082121000800000000A1
:100180002121000821210008212100082121000847
:100190002121000821210008212100082121000837
:0C01A00000000000000000002121000809
:1001B00010B5054C237833B9044B13B10448AFF3A1
:1001C00000800123237010BD70000020000000009B
:1001D000F429000808B5034B1BB103490348AFF3EA
:1001E000008008BD0000000074000020F429000811
:1001F00001F0FF01102A2BDB10F0070F08D010F8D8
:10020000013B013A8B422DD010F0070F42B3F6D1DB
:10021000F0B441EA012141EA014122F007047FF0F4
:1002200000070023F0E80256083C85EA010586EA4B
:10023000010685FA47F5A3FA87F586FA47F6A5FA87
:1002400087F68EB9EED1F0BC01F0FF0102F0070293
:1002500032B110F8013B013A83EA010313B1F8D13E
:100260000020704701387047002D06BF354603381F
:10027000073815F0010F07D1013015F4807F02BF58
:10028000013015F4C03F0130F0BC0138704700BFA9
:1002900053B94AB9002908BF00281CBF4FF0FF31ED
:1002A0004FF0FF3000F06EB9ADF1080C6DE904CEEF
:1002B00000F006F8DDF804E0DDE9022304B0704741
:1002C0002DE9F047089D04468C46002B40F08380C2
:1002D0008A42174647D9B2FA82F242B1C2F12000EF
:1002E00024FA00F09140974040EA010C94404FEA14
:1002F0001748230CBCFBF8F61FFA87FE08FB16C153
:1003000043EA014306FB0EF1994209D9FB1806F1B5
:10031000FF3080F01981994240F21681023E3B4441
:100320005B1AA4B2B3FBF8F008FB103344EA0344B1
:1003300000FB0EFEA64509D93C1900F1FF3380F001
:100340000581A64540F2028102383C4440EA06405D
:10035000A4EB0E0400261DB1D4400023C5E90043E0
:100360003146BDE8F08702B9FFDEB2FA82F2002A18
:1003700050D1CB1B4FEA174E1FFA87F80126B3FB6B
:10038000FEFC210C0EFB1C3341EA034108FB0CF37D
:100390008B4207D979180CF1FF3002D28B4200F260
:1003A000E9808446C91AA3B2B1FBFEF00EFB10111E
:1003B00043EA014408FB00F8A04507D93C1900F1C5
:1003C000FF3302D2A04500F2D9801846A4EB0804FE
:1003D00040EA0C40BFE78B4209D9002D00F0B18004
:1003E0000026C5E9000130463146BDE8F087B3FA82
:1003F00083F6002E4AD18B4202D3824200F2B880AB
:10040000841A61EB030101208C46002DA8D0C5E9B8
:10041000004CA5E7C2F1200320FA03F6974001FA49
:1004200002F04FEA174ED9403043030CB1FBFEF601
:100430001FFA87F80EFB161143EA014306FB08F189
:10044000994204FA02F409D9FB1806F1FF3C80F046
:100450008D80994240F28A80023E3B445B1A81B211
:10046000B3FBFEF00EFB103341EA034100FB08F33F
:100470008B4207D9791800F1FF3C73D28B4271D9B6
:1004800002383944CB1A40EA064678E7C6F1200C18
:1004900003FA06F422FA0CF31C4320FA0CF701FAD3
:1004A00006F34FEA144E21FA0CF11F433B0CB1FB4B
:1004B000FEF91FFA84F80EFB191143EA014109FB0A
:1004C00008FA8A4502FA06F200FA06F308D961181A
:1004D00009F1FF3048D28A4546D9A9F102092144E1
:1004E000A1EB0A01BFB2B1FBFEF00EFB101147EA0F
:1004F000014700FB08F8B84507D9E71900F1FF31BB
:100500002ED2B8452CD90238274440EA0940A7EB3F
:100510000807A0FB02894F45C64649461AD317D0A3
:100520005DB1B3EB0E0267EB010707FA0CFCF2407A
:100530004CEA0202F740C5E9002700263146BDE833
:10054000F0872E4628460BE70646E9E61846FDE604
:100550004345E5D2B8EB020E69EB04010138DFE751
:100560000846D2E760468DE78146B9E7664675E7FB
:1005700030464AE7ACF1020C394413E702383C44F8
:1005800024E700BF704700BF2DE9F0438DB0002481
:100590000794089409940A940B940194484B1A6B9D
:1005A00042F010021A631A6B02F010020192019AD3
:1005B00002941A6B42F004021A631A6B02F00402EE
:1005C0000292029A03941A6B42F080021A631A6B29
:1005D00002F080020392039A04941A6B42F0010223
:1005E0001A631A6B02F001020492049A05941A6BC2
:1005F00042F002021A631A6B02F002020592059A97
:1006000006941A6B42F008021A631B6B03F008038E
:100610000693069B2B4E22461021304601F098F897
:10062000294F22460421384601F092F8DFF89C90C9
:1006300022461821484601F08BF8DFF894802246C4
:100640004FF4E061404601F083F810230793012541
:10065000089509940A9407A9304600F087FF44F2F0
:10066000080307930894099407A9384600F07EFF11
:1006700004230793089509940A9407A9384600F0C3
:1006800075FF18230793089509940A9407A948460B
:1006900000F06CFF4FF4805307930894099407A966
:1006A000304600F063FF4FF4E06307930895099428
:1006B0000A9407A9404600F059FF0DB0BDE8F08349
:1006C00000380240001002400008024000000240D2
:1006D000000C024008B50B480B4B03604FF48273CB
:1006E000436000238360C360036143614FF4007281
:1006F0008261C3610362436283620A23C36200F0C2
:10070000BDFA08BD380500200030014008B50B488F
:100710000B4B03604FF48273436000238360C3601C
:10072000036143614FF400728261C36103624362FB
:1007300083620A23C36200F0A1FA08BD980000207A
:100740000038004008B509484FF0A0430360042377
:1007500043600222C260002303618261C3610362BD
:100760004362C362036301F083FA08BD30010020D5
:1007700008B50848084B03604FF4E1334360002399
:100780008360C36003610C2242618361C36101F035
:10079000CFF908BDF00000200078004010B594B0FB
:1007A0003022002108A801F0E1FC00240394049405
:1007B00005940694079401941C4B1A6C42F08052E5
:1007C0001A641B6C03F080530193019B0294184A36
:1007D000136823F4404343F480431360136803F425
:1007E00040430293029B032308934FF48032099203
:1007F00001220B9210220C9202220E924FF48001E1
:100800000F910C211091482111911292139308A875
:1008100000F090FB0F23039304940594069407942F
:10082000214603A800F0CCFD14B010BD00380240F2
:100830000070004070B588B001F012F8FFF7AEFF0D
:10084000FFF7A2FEFFF746FFFFF77CFFFFF790FFE1
:10085000FFF75CFF01221021414800F079FF0122DF
:100860004FF480613F4800F073FF642001F024F8EA
:100870009F238DF8133000238DF81230CF238DF88D
:1008800011302AE0384D9DF81B20294603A801F0BD
:1008900075FC364C0A23012203A9204601F077F9A2
:1008A0009DF81C20294603A801F068FC0A230122B8
:1008B00003A9204601F06BF92A4C01224FF4007184
:1008C000204600F045FF4FF4FA7000F0F5FF0022DB
:1008D0004FF40071204600F03BFF4FF4FA7000F037
:1008E000EBFF1F4C00221021204600F031FF1D4D70
:1008F00000224FF48061284600F02AFF642600960B
:1009000002230DF112020DF11101194800F0F6F960
:100910000096092305AA0DF11301164800F0EEF91F
:1009200001224FF48061284600F012FF01221021BD
:10093000204600F00DFF9DF81B30222BA2D1012292
:100940004FF48071284600F003FF4FF47A7000F0F6
:10095000B3FF00224FF48071284600F0F9FE91E7C2
:1009600000100240000C02400C2A0008F000002099
:1009700038050020980000207047FEE7FEE7FEE7FC
:10098000FEE770477047704708B500F083FF08BD69
:1009900082B0002100910B4B5A6C42F480425A64A1
:1009A0005A6C02F480420092009A01911A6C42F053
:1009B00080521A641B6C03F080530193019B02B0B8
:1009C000704700BF0038024000B58BB0002305938C
:1009D00006930793089309930368294A934205D025
:1009E000284A934226D00BB05DF804FB0022019206
:1009F000254B596C41F480515964596C01F4805174
:100A0000019101990292196B41F0010119631B6B6D
:100A100003F001030293029BE02305930223069354
:100A20000792032308930523099305A9174800F0AB
:100A30009DFDD8E700220392134B196C41F48041CD
:100A40001964196C01F48041039103990492196BA4
:100A500041F0020119631B6B03F002030493049B32
:100A60004FF444430593022306930792032308930C
:100A70000523099305A9064800F078FDB3E700BFF8
:100A800000300140003800400038024000000240C1
:100A90000004024000B589B000230393049305933A
:100AA000069307930268164B9A4202D009B05DF88C
:100AB00004FB0021019103F5E0331A6C42F08042FF
:100AC0001A641A6C02F080420192019A02911A6B28
:100AD00042F010021A631B6B03F010030293029B97
:100AE0004FF4C0730393022304930123059303235C
:100AF00006930823079303A9024800F037FDD5E7C2
:100B0000007800400010024030B589B00023039304
:100B100004930593069307930368B3F1A04F01D0A4
:100B200009B030BD00250195134C236B43F0010340
:100B30002363236B03F001030193019B4FF4C05324
:100B40000393022304930595032306930A23079333
:100B500003A90A4800F00AFD636B43F08003636356
:100B60000295636C43F480436364636C03F48043D5
:100B70000293029BD4E700BF00380240000002400D
:100B80002DE9F0410646884617461D463468A4689C
:100B900038EA04030CBF01240024BC4237D0B5F16D
:100BA000FF3FF3D000F082FE069BC01AA84201D29C
:100BB000002DEBD13268536823F0E0035360736873
:100BC000B3F5827F0BD0B36AB3F5005F14D0012375
:100BD00086F85130002386F85030032018E0B368BF
:100BE000B3F5004F02D0B3F5806FECD132681368D3
:100BF00023F040031360E6E73268136823F40053E0
:100C000013603268136843F400531360DFE7002079
:100C1000BDE8F08130B585B00446164B1868164B18
:100C2000A3FB0030400D4FF47A7505FB00F00390F4
:100C30006368B3F5827F0BD0039BBBB1039B013B81
:100C4000039323689B6813F0800FF5D100200EE01A
:100C500000920B46002280212046FFF791FF30B121
:100C6000636D43F020036365032000E0002005B0BE
:100C700030BD00BF08000020819F5E1600283BD0D9
:100C800010B504460023836290F85130002B2ED01B
:100C9000022384F851302268136823F04003136064
:100CA0006368A2681343E2681343226913436269CD
:100CB0001343A26902F400721343E2691343226AE8
:100CC0001343A16A22680B431360638B03F0040390
:100CD000616A22680B4353602268D36923F400637E
:100CE000D36100206065012384F8513010BD80F885
:100CF0005030FFF769FECBE7012070472DE9F04344
:100D000083B01F460A9D90F85030012B00F01081EF
:100D1000044688469146012380F8503000F0C6FD15
:100D2000064694F85130DBB26268012B0AD0B2F566
:100D3000827F40F0E380A268002A40F0E980042B23
:100D400040F0E880B8F1000F00F0E680B9F1000F44
:100D500000F0E480002F00F0E38094F85130DBB223
:100D6000042B02D0052384F8513000236365C4F8B6
:100D70003890E787A787C4F83080E786A786236482
:100D8000636423681A6812F0400F03D11A6842F0B6
:100D900040021A60E368B3F5006F11D063680BB1CD
:100DA000012F0BD1226B236812781A73236B013346
:100DB0002363E38E9BB2013B9BB2E38601276BE08A
:100DC00063680BB1012F0BD1226B23681288DA60A4
:100DD000236B02332363E38E9BB2013B9BB2E3861A
:100DE00001271CE023689A6812F0010F0ED0E28FF1
:100DF00092B25AB1DA68A36B1A80A36B0233A36371
:100E0000E38F9BB2013B9BB2E387012700F04EFDCD
:100E1000801BA84203D3B5F1FF3F40F08380E38EEF
:100E20009BB21BB9E38F9BB2002B53D023689A6807
:100E300012F0020FD6D0E28E92B2002AD2D0002F4A
:100E4000D0D0226B1288DA60236B02332363E38EE7
:100E50009BB2013B9BB2E3860027C3E723689A68F5
:100E600012F0010F0ED0E28F92B25AB1DA68A36B82
:100E70001A70A36B0133A363E38F9BB2013B9BB258
:100E8000E387012700F012FD831BAB4202D3B5F1CB
:100E9000FF3F49D1002D49D0E38E9BB213B9E38FB8
:100EA0009BB2BBB123689A6812F0020FD6D0E28ED3
:100EB00092B2002AD2D0002FD0D0226B12781A73AF
:100EC000236B01332363E38E9BB2013B9BB2E3862A
:100ED0000027C3E7324629462046FFF79BFE48B964
:100EE000A36863B901932368DA6801929B68019350
:100EF000019B04E020236365012000E00220012320
:100F000084F85130002384F8503003B0BDE8F083FA
:100F10000220F4E70220F2E70120F0E70120EEE7EB
:100F20000120ECE70320EAE70320E8E70320E6E7F7
:100F30000220EAE7002800F0D98170B582B00446AB
:100F4000036813F0010F3BD0A64B9B6803F00C0322
:100F5000042B2CD0A34B9B6803F00C03082B21D04F
:100F60006368B3F5803F4FD0B3F5A02F52D09D4BAF
:100F70001A6822F480321A601A6822F480221A60F9
:100F80006368002B50D000F091FC0546954B1B6820
:100F900013F4003F14D100F089FC401B6428F5D9FC
:100FA0000320AAE18F4B5B6813F4800FD8D08D4BE0
:100FB0001B6813F4003F03D06368002B00F0988196
:100FC000236813F0020F54D0864B9B6813F00C0F6C
:100FD0003ED0844B9B6803F00C03082B33D0E368AE
:100FE000002B67D0804B01221A6000F05FFC0546A1
:100FF0007C4B1B6813F0020F53D100F057FC401BD1
:101000000228F5D9032078E1764A136843F4803347
:101010001360B5E7734B1A6842F480221A601A68AD
:1010200042F480321A60ABE700F040FC05466D4B9D
:101030001B6813F4003FC3D000F038FC401B642849
:10104000F5D9032059E1674B5B6813F4800FC6D1D3
:10105000644B1B6813F0020F03D0E368012B40F0D0
:101060004981604A136823F0F803216943EAC10308
:101070001360236813F0080F40D0636963B35B4BC0
:1010800001221A6000F012FC0546564B5B6F13F00C
:10109000020F33D100F00AFC401B0228F5D90320CF
:1010A0002BE1504A136823F0F803216943EAC10396
:1010B0001360DEE74C4B00221A6000F0F7FB054698
:1010C000484B1B6813F0020FD3D000F0EFFB401B1E
:1010D0000228F5D9032010E1444B00221A6000F0E9
:1010E000E5FB05463F4B5B6F13F0020F06D000F0A7
:1010F000DDFB401B0228F5D90320FEE0236813F036
:10110000040F78D0374B1B6C13F0805F0DD1002398
:101110000193344B1A6C42F080521A641B6C03F03A
:1011200080530193019B012500E00025304B1B6893
:1011300013F4807F21D0A368012B32D0052B36D049
:10114000284B1A6F22F001021A671A6F22F004026C
:101150001A67A368002B34D000F0A8FB0646214B89
:101160001B6F13F0020F45D100F0A0FB801B41F272
:1011700088339842F3D90320BFE01D4A136843F433
:101180008073136000F092FB0646194B1B6813F442
:10119000807FD0D100F08AFB801B0228F5D9032084
:1011A000ABE0104A136F43F001031367D1E70D4B17
:1011B0001A6F42F004021A671A6F42F001021A67AE
:1011C000C7E700F073FB0646064B1B6F13F0020FD8
:1011D00010D000F06BFB801B41F288339842F3D9AA
:1011E00003208AE00038024000004742800E474258
:1011F00000700040E5B9A369002B7DD0464A926893
:1012000002F00C02082A51D0022B17D0434B0022C7
:101210001A6000F04BFB04463F4B1B6813F0007F45
:1012200042D000F043FB001B0228F5D9032064E004
:10123000394A136C23F080531364DCE7374B0022E8
:101240001A6000F033FB0546334B1B6813F0007F38
:1012500006D000F02BFB401B0228F5D903204CE000
:10126000E369226A1343626A43EA8213A26A52085C
:10127000013A43EA0243E26A43EA0263264A5360C0
:10128000264B01221A6000F011FB0446224B1B681A
:1012900013F0007F06D100F009FB001B0228F5D9EE
:1012A00003202AE0002028E0002026E0012B26D0A1
:1012B000194B9B6803F48001E269914221D103F04C
:1012C0003F02216A8A421ED1616A47F6C0721A4003
:1012D0008A421AD103F44032A16A8A4217D103F03C
:1012E0007063E26A934214D1002006E00120704747
:1012F000012002E0012000E0002002B070BD0120CA
:10130000FBE70120F9E70120F7E70120F5E70120DD
:10131000F3E70120F1E700BF0038024060004742D8
:10132000F8B5244B9B6803F00C03042B3DD0082B2D
:101330003DD1204B5A6802F03F025B6813F4800FE6
:1013400012D01C4B5968C1F3881100231A48A1FB25
:101350000001FEF79DFF174B5B68C3F301430133A8
:101360005B00B0FBF3F023E0124B5B68C3F3881320
:101370005C010025E41A65F10005AE0146EA9466B9
:10138000A701381B66EB0501CC0044EA5074C50088
:10139000E81844F100018B0243EA9053840220468E
:1013A00019460023FEF774FFD5E7034800E0034821
:1013B000F8BD00BF0038024000366E010024F40082
:1013C000002800F09B8070B50D4604464F4B1B680B
:1013D00003F00F038B4208D2CBB24C4A1370136850
:1013E00003F00F038B4240F08B80236813F0020F51
:1013F00017D013F0040F04D0454A936843F4E05328
:101400009360236813F0080F04D0414A936843F4B3
:10141000604393603E4A936823F0F003A1680B4356
:101420009360236813F0010F32D06368012B21D041
:101430009A1E012A25D9364A126812F0020F61D08D
:1014400033498A6822F0030213438B6000F02EFABE
:1014500006462F4B9B6803F00C036268B3EB820FC8
:1014600016D000F023FA801B41F288339842F0D95D
:10147000032042E0264A126812F4003FE0D1012026
:101480003BE0234A126812F0007FD9D1012034E0FA
:101490001E4B1B6803F00F03AB4207D9EAB21B4B8C
:1014A0001A701B6803F00F03AB422DD1236813F0B1
:1014B000040F06D0164A936823F4E053E1680B4307
:1014C0009360236813F0080F07D0114A936823F440
:1014D0006043216943EAC1039360FFF721FF0C4B8E
:1014E0009B68C3F303130B4AD35CD8400A4B1860C4
:1014F0000A4B186800F08EF9002070BD012070477B
:101500000120FAE70120F8E70120F6E7003C02405D
:1015100000380240102A00080800002004000020C3
:10152000014B1868704700BF0800002008B5FFF79E
:10153000F7FF044B9B68C3F38223034AD35CD84074
:1015400008BD00BF00380240202A000808B5FFF798
:10155000E7FF044B9B68C3F34233034AD35CD84094
:1015600008BD00BF00380240202A000800230F2BCE
:1015700000F2E580F0B583B039E0092200E00022F6
:10158000B2403A4302346E4E46F824206D4A146845
:10159000EA4324EA05064F6817F4803F01D045EA84
:1015A0000406684C2660646802EA04064F6817F473
:1015B000003F01D045EA0406624C6660A46802EA76
:1015C00004064F6817F4801F01D045EA04065D4CFD
:1015D000A660E46822404E6816F4001F01D045EA78
:1015E0000402584CE26001330F2B00F2A680012266
:1015F0009A400C6804EA020532EA0404F3D14C680C
:10160000661E012E03D9112C01D0122C12D186682E
:101610005F000324BC4026EA0406CC68BC40344387
:101620008460466826EA02064C68C4F300129A40B9
:1016300032434260C7685E000324B440E24327EAB5
:1016400004078C68B4403C43C4604C68022C01D051
:10165000122C13D1DF08083750F827E003F00704F5
:101660004FEA840C0F2404FA0CF42EEA040E0C69E1
:1016700004FA0CF444EA0E0440F8274004681440CD
:101680004A6802F00302B240224302604A6812F044
:10169000805FA8D0002201922B4A546C44F480440D
:1016A0005464526C02F480420192019A9C08A61C78
:1016B000234A52F8267003F0030296000F22B2402C
:1016C00027EA0207214A90423FF459AF02F58062AF
:1016D000904222D002F58062904220D002F58062D2
:1016E00090421ED002F5806290421CD002F58062CA
:1016F00090421AD002F58062904218D002F58062C2
:10170000904216D002F58062904214D002F58062B9
:1017100090423FF432AF0A2232E7012230E7022240
:101720002EE703222CE704222AE7052228E70622D7
:1017300026E7072224E7082222E703B0F0BD70471E
:1017400000380140003C01400038024000000240E7
:101750000AB181617047090481617047074AD36803
:1017600023F4E0631B041B0C000200F4E06003435D
:1017700043F0BF6343F40033D360704700ED00E0F3
:1017800030B4174BDB68C3F30223C3F10704042C06
:1017900028BF04241D1D062D18D9033B4FF0FF352B
:1017A00005FA04F421EA0401994005FA03F322EA58
:1017B0000303194300280BDB0901C9B200F16040A3
:1017C00000F5614080F8001330BC70470023E5E766
:1017D00000F00F000901C9B2024B1954F4E700BF31
:1017E00000ED00E014ED00E00138B0F1807F0AD296
:1017F000064B5860064AF02182F8231000209860BA
:1018000007221A6070470120704700BF10E000E017
:1018100000ED00E010B504460E4B18784FF47A73D3
:10182000B3FBF0F30C4A1068B0FBF3F0FFF7DCFFFA
:1018300068B90F2C01D901200AE0002221464FF09F
:10184000FF30FFF79DFF054B1C60002000E00120EA
:1018500010BD00BF00000020080000200400002090
:1018600008B50B4B1A6842F400721A601A6842F409
:1018700080621A601A6842F480721A600320FFF7CF
:101880006DFF0020FFF7C6FFFFF782F8002008BDBC
:10189000003C0240034A1168034B1B780B44136061
:1018A000704700BF9005002000000020014B186821
:1018B000704700BF9005002038B50446FFF7F6FFDB
:1018C0000546B4F1FF3F02D0044B1B781C44FFF7E0
:1018D000EDFF401BA042FAD338BD00BF000000203E
:1018E00070B504460268136923F44053C1680B4382
:1018F000136183680269134342691343C2691A433F
:101900000168CB6823F4164323F00C031343CB6028
:101910000268536923F4407381690B435361C369BF
:10192000B3F5004F36D00368654A934200F09A80C1
:1019300002F58062934200F09580FFF7F7FD0026E4
:10194000051846EB06012D1846EB0101CB0043EAD2
:101950005573EA001546194663689A009B0F2818CC
:1019600046EB0101FEF794FC564DA5FB00325109F0
:10197000642303FB11031B013233A5FB03235B0923
:1019800003F0F00202EB011203F00F03216813448D
:101990008B6093E003684A4A934233D002F5806239
:1019A00093422FD0FFF7C2FD0026051846EB060133
:1019B0002D1846EB0101CB0043EA5573EA001546AA
:1019C000194662683346921846EB0303281846EB23
:1019D0000101FEF75DFC3B4DA5FB0032510964237C
:1019E00003FB1103DB003233A5FB03235B095A0021
:1019F00002F4F87202EB011203F0070321681344AA
:101A00008B605BE0FFF7A2FD0026051846EB0601A0
:101A10002D1846EB0101CB0043EA5573EA00154649
:101A2000194662683346921846EB0303281846EBC2
:101A30000101FEF72DFC234DA5FB00325109642363
:101A400003FB1103DB003233A5FB03235B095A00C0
:101A500002F4F87202EB011203F007032168134449
:101A60008B602BE0FFF772FD0026051846EB0601A0
:101A70002D1846EB0101CB0043EA5573EA001546E9
:101A8000194663689A009B0F281846EB0101FEF780
:101A9000FFFB0C4DA5FB00325109642303FB11032E
:101AA0001B013233A5FB03235B0903F0F00202EBB9
:101AB000011203F00F03216813448B6070BD00BF57
:101AC000001001401F85EB512DE9F84305460F46F4
:101AD00016469946DDF820802C68246837EA04030E
:101AE0000CBF01240024B4421FD1B8F1FF3FF3D052
:101AF000B8F1000F05D0FFF7D9FEA0EB0900404573
:101B0000EAD92A68D36823F4D073D3602A6853696A
:101B100023F001035361202385F8393085F83A30EA
:101B2000002385F83830032000E00020BDE8F8836A
:101B300058B310B5044690F839300BB3242384F819
:101B400039302268D36823F40053D3602046FFF76E
:101B5000C7FE2268136923F4904313612268536916
:101B600023F02A0353612268D36843F40053D360FF
:101B70000020E063202384F8393084F83A3010BD27
:101B800080F83830FEF786FFD8E7012070472DE94E
:101B9000F04383B01E4690F83930DBB2202B59D188
:101BA00004460D469046002958D0002A58D090F897
:101BB0003830012B56D0012380F838304FF000091F
:101BC000C0F83C90212380F83930FFF76FFE0746BC
:101BD000A4F82480A4F8268084F8389017E00096B2
:101BE0003B46002280212046FFF76EFF00283BD1B4
:101BF0002B882268C3F30803536023690BB90235AD
:101C000005E0013503E015F8012B23685A60E38CE9
:101C10009BB29BB1E28C92B2013A92B2E284A36889
:101C2000B3F5805FDBD000963B4600228021204642
:101C3000FFF74AFF0028E6D003200CE000963B4661
:101C4000002240212046FFF73FFF78B9202384F887
:101C5000393000E0022003B0BDE8F0830120FAE74C
:101C60000120F8E70220F6E70320F4E70320F2E77B
:101C7000F0B58BB0002800F08C800546046890F821
:101C8000BD332BB3032385F8BD33E36B13F4807F9F
:101C900001D100232B61286800F0E1F82C4654F8AC
:101CA000107B6E460FCC0FC60FCC0FC694E8030016
:101CB00086E803002B1D0ECB384600F08BF8044657
:101CC00058B1022385F8BD33012420460BB0F0BD86
:101CD00080F8BC33FEF718FFD4E70021286800F035
:101CE000C4F8234616E0C3EBC30205EB82020121D0
:101CF00082F83D1082F83C30A2F84230002182F890
:101D00003F1051649164C3EBC30205EB820211657D
:101D10000133DBB269688B42E5D316E0C4EBC40340
:101D200005EB8303002283F8FD2183F8FC4183F84F
:101D3000FF21C3F80422C3F80822C4EBC40305EB57
:101D40008303C3F810220134E4B2A142E6D82C4642
:101D500054F8107B6E460FCC0FC60FCC0FC694E81C
:101D6000030086E803002B1D0ECB384600F0C4F8B4
:101D7000044620B1022385F8BD330124A5E70023E2
:101D800085F83830012385F8BD33286800F086F9DE
:101D90009BE7012499E70000002301330C4A93429A
:101DA00011D80269002AF8DA036943F001030361DC
:101DB00000230133064A934207D8026912F0010F4B
:101DC000F7D100207047032070470320704700BF01
:101DD000400D030084B010B5044603A880E80E004F
:101DE000089B012B1FD1A36B23F48033A363E3680B
:101DF00023F4840323F04003E360E36823F44013F7
:101E0000E3600F9B012B09D02046FFF7C5FF069B1F
:101E1000012B1BD0BDE8104004B07047E36843F4C9
:101E20008013E360F0E7E36843F04003E36020469B
:101E3000FFF7B2FF0C9B23B9A36B43F48033A3637A
:101E4000E5E7A36B23F48033A363E0E7A36843F0E3
:101E50000603A360A36843F02003A360DAE7836866
:101E600023F0010383600020704708B5C36823F0A6
:101E7000C043C360012909D069B9C36843F08043F6
:101E8000C3603220FFF718FD002008BDC36843F08F
:101E90000053C360F5E70120F7E70000890141F036
:101EA0002001016100230133054A934205D80269EC
:101EB00012F0200FF7D1002070470320704700BFB9
:101EC000400D03001023036100230133054A9342B0
:101ED00005D8026912F0100FF7D1002070470320D7
:101EE000704700BF400D0300D0F800381943C0F818
:101EF000001800207047000084B02DE9F843044624
:101F000009A880E80E002546002306E003F1400200
:101F100004EB82020021516001330E2BF6D9DDF86B
:101F20004C80B8F1000F1ED1A36B43F40013A363E0
:101F3000A36B23F40023A363A36B23F48023A36385
:101F40000023C4F8003E04F50066D4F80038C4F855
:101F500000380E9B012B14D10B9B6BB9002120463E
:101F6000FFF7C2FF11E0236823F400132360A36B83
:101F700043F40023A363E3E701212046FFF7B4FF06
:101F800003E003212046FFF7AFFF10212046FFF7B3
:101F900085FF814608B14FF001092046FFF792FF07
:101FA00008B14FF00109002333617361F3610AE066
:101FB000C3B94FF00060C2F8000900220A614FF671
:101FC0007F328A600133099F9F4210D905EB43128B
:101FD00002F51061D2F800090028E9DB0020C2F800
:101FE0000009EAE74FF09040C2F80009E5E7002356
:101FF0000AE0BBB14FF09040C2F8000B00220A612A
:102000004FF67F328A6001339F4210D905EB4312AD
:1020100002F53061D2F8000B0028EADB0020C2F89C
:10202000000BEBE74FF00060C2F8000BE6E7336906
:1020300023F4807333610C9B012B1BD00022A2611F
:102040006FF0804262611BB9A36943F01003A36182
:10205000A269104B1343A3610F9B1BB1A36943F00B
:102060000803A361B8F1010F0DD04846BDE8F8435D
:1020700004B07047084A3263326B42F4803242F057
:1020800003023263DAE7A36943F0804343F00403B9
:10209000A361EAE700383C800001800008B5D0F871
:1020A000043843F00203C0F804380320FFF704FCAF
:1020B000002008BD054BD3F8882042F47002C3F815
:1020C00088204FF000629A60704700BF00ED00E08A
:1020D000DFF834D0002103E00C4B5B58435004314F
:1020E0000B480C4B42189A42F6D30B4A02E00023ED
:1020F00042F8043B094B9A42F9D3FFF7DBFF00F0AB
:1021000011F8FEF797FB7047000003206C2A0008C7
:10211000000000207000002070000020A4050020B6
:10212000FEE7000070B50D4D0D4C641BA410002699
:10213000A64209D10B4D0C4C00F05CFC641BA410B2
:102140000026A64205D170BD55F8043B98470136DC
:10215000EEE755F8043B98470136F2E7642A000899
:10216000642A0008642A0008682A0008024403461A
:10217000934200D1704703F8011BF9E70EB400B594
:102180009CB01DAB029006906FF00041094807918A
:102190000491094953F8042B05910068019302A9A1
:1021A00000F068F8029B00221A701CB05DF804EB86
:1021B00003B070470C0000200802FFFF2DE9F04734
:1021C0008E689E4282460C4690461F4638D88A89C1
:1021D00012F4906F32D025680969A5EB0109656991
:1021E00005EB450505EBD57501334B446D109D425C
:1021F00038BF1D46530531D5294600F047FB06463A
:1022000050B90C23CAF80030A38943F04003A381DE
:102210004FF0FF30BDE8F08721694A4600F0BEFA72
:10222000A38923F4906343F08003A3812661656151
:102230004E44A5EB09052660A5603E46BE4200D986
:102240003E4632462068414600F0B6FAA36822684E
:102250009B1B3244A36022600020DBE72A4600F08B
:102260006FFB06460028E1D12169504600F0BEFA16
:10227000C7E700002DE9F04F98468B891B069DB0FB
:1022800007460D4614460ED50B6963B9402100F090
:10229000FDFA2860286120B90C233B604FF0FF3025
:1022A000D1E040236B610023099320238DF829306E
:1022B000CDF80C803023DFF8A8818DF82A304FF05C
:1022C000010923469A4613F8012B0AB1252AF9D1B0
:1022D000BAEB040B0BD05B46224629463846FFF783
:1022E0006DFF013000F0AA80099A5A4409929AF8C9
:1022F0000030002B00F0A28000234FF0FF32CDE928
:1023000005230AF1010A049307938DF853301A93B9
:102310005446052214F8011B5148FDF769FF049A41
:10232000D8B9D00644BF20238DF85330110744BFDD
:102330002B238DF853309AF800302A2B15D0079AAA
:10234000544600204FF00A0C214611F8013B303B67
:10235000092B4ED9B0B1079214E0A0EB080309FA9B
:1023600003F313430493A246D2E7039B191D1B6892
:102370000391002BBBBF5B4242F00202079307931D
:10238000B8BF049223782E2B0CD163782A2B35D139
:10239000039B1A1D1B680392002BB8BF4FF0FF333D
:1023A00002340593DFF8C8A0217803225046FDF7D8
:1023B0001FFF40B14023A0EB0A0003FA00F0049B8A
:1023C00003430134049314F8011B26488DF82810A8
:1023D0000622FDF70DFF002838D0234B1BBB039BC3
:1023E000073323F0070308330393099B334409930E
:1023F00067E70CFB02320C460120A5E700230134FD
:10240000059319464FF00A0C204610F8012B303A7C
:10241000092A03D9002BC5D00591C3E70CFB012184
:1024200004460123F0E703AB00932A460F4B04A9AF
:102430003846AFF30080421C0646D6D1AB895B0616
:102440003FF52CAF09981DB0BDE8F08F03AB0093AA
:102450002A46064B04A9384600F07AF8EBE700BF9D
:10246000282A0008322A000800000000BD210008C8
:102470002E2A00082DE9F047164699468A680B690E
:10248000DDF820809342B8BF1346336091F84320B3
:1024900007460C460AB1013333602368990642BFF0
:1024A000336802333360256815F0060506D104F160
:1024B000190AE36832689B1AAB4226DC94F8432081
:1024C000131E226818BF012392062BD404F1430285
:1024D00049463846C04701301ED02368E568326857
:1024E00003F00603042B08BFAD1AA36822690CBFD2
:1024F00025EAE57500259342C4BF9B1AED18002616
:102500001A34B5421AD1002008E001235246494648
:102510003846C047013003D14FF0FF30BDE8F087A7
:102520000135C6E7E1185A1C302081F843002244E7
:1025300094F8451082F843100233C7E7012322467E
:1025400049463846C0470130E6D00136D9E7000099
:102550002DE9FF470C469146277E0C99782F80463F
:102560009A4604F1430207D8622F0AD8002F00F0E0
:10257000D880582F00F0A38004F1420684F84270FE
:102580003AE0A7F16303152BF6D801A050F823F029
:10259000E9250008FD2500087925000879250008AF
:1025A0007925000879250008FD250008792500080F
:1025B00079250008792500087925000809270008F1
:1025C0002D260008EB26000879250008792500084B
:1025D0002B270008792500082D26000879250008FA
:1025E00079250008F32600080B681A1D1B680A608D
:1025F00004F1420684F842300123A3E0256808680C
:102600002E0600F104030AD505680B60002D03DADD
:102610002D236D4284F843305E480A2319E015F0FB
:10262000400F05680B6018BF2DB2EFE70B682568F7
:10263000181D0860280601D51D6802E06906FBD553
:102640001D8854486F2F0CBF08230A23002184F8EB
:1026500043106668A660002EA2BF216821F0040125
:1026600021600DB9002E4DD01646B5FBF3F103FBEA
:102670001157C75D06F8017D2F46BB420D46F4D9C0
:10268000082B0BD12368DF0708D5236961689942BD
:10269000DEBF302306F8013C06F1FF36921B2261B3
:1026A000CDF800A04B4603AA21464046FFF7E2FEC4
:1026B00001304CD14FF0FF3004B0BDE8F087354811
:1026C00084F8457023680E681F0656F8045B0E6098
:1026D00014D5D90744BF43F0200323601DB92368F4
:1026E00023F0200323601023B0E7236843F0200386
:1026F00023607823284884F84530E3E75E0648BF26
:10270000ADB2E6E71646BBE70B68266860691D1D9B
:102710000D6035061B6801D5186002E07106FBD517
:102720001880002323611646BAE70B681A1D0A6059
:102730001E68626800213046FDF75AFD08B1801B13
:10274000606063682361002384F84330A8E723694D
:10275000324649464046D0470130ABD023689B07FC
:1027600013D4E068039B9842B8BF1846A4E701233E
:10277000324649464046D04701309BD00135E36898
:1027800003995B1AAB42F2DCEBE7002504F1190672
:10279000F5E700BF392A00084A2A00080A44914296
:1027A00000F1FF3300D1704710B511F8014B03F869
:1027B000014F9142F9D110BD884210B501EB0204DE
:1027C00002D98442234607D8431EA14208D011F8FB
:1027D000012B03F8012FF8E7024401468A4200D199
:1027E00010BD13F8014D02F8014DF7E737B5002988
:1027F00048D051F8043C0190002BA1F10404B8BF6B
:10280000E41800F0D3F8204A01981368154633B94C
:102810006360146003B0BDE8304000F0CDB8A3425F
:102820000BD921686218934204BF1A685B68636021
:1028300004BF521822602C60ECE71A465B680BB1AB
:10284000A342FAD911685518A5420BD12468214436
:102850005418A3421160DDD11C685B6853602144A9
:102860001160D7E702D90C230360D3E7256861190B
:102870008B4204BF19685B68636004BF491921601B
:102880005460C7E703B030BD8C000020F8B5CD1C04
:1028900025F0030508350C2D38BF0C25002D064604
:1028A00001DBA94203D90C2333600020F8BD00F0FE
:1028B0007DF821490A6814469CB9204F3B6823B92A
:1028C0002146304600F062F838602946304600F074
:1028D0005DF8431C23D10C233360304600F06CF8C4
:1028E000E3E723685B1B17D40B2B03D923601C443D
:1028F000256004E06368A2420CBF0B605360304661
:1029000000F05AF804F10B00231D20F00700C21A52
:10291000CCD01B1AA350C9E722466468CCE7C41C7C
:1029200024F00304A042E3D0211A304600F02EF830
:102930000130DDD1CFE700BF8C00002090000020E7
:10294000F8B5074614460E4621B9BDE8F8401146D1
:10295000FFF79CBF22B9FFF749FF25462846F8BD7F
:1029600000F030F8A0420FD221463846FFF78EFF24
:1029700005460028F2D031462246FFF70FFF3146C8
:102980003846FFF733FFE9E73546E7E738B5064D48
:102990000023044608462B6000F01EF8431C02D1B9
:1029A0002B6803B1236038BD94050020014800F076
:1029B00011B800BF9C050020014800F00CB800BF12
:1029C0009C05002051F8043C181F002BBCBF0B587D
:1029D000C018704770477047044A05491368002BB8
:1029E00008BF0B461844106018467047940000203A
:1029F000A8050020F8B500BFF8BC08BC9E4670478B
:0C2A0000F8B500BFF8BC08BC9E4670474B
:102A0C002578000000000000000000000102030413
:102A1C00060708090000000001020304232D302BD7
:102A2C002000686C4C0065666745464700303132C3
:102A3C00333435363738394142434445460030311A
:102A4C003233343536373839616263646566000079
:082A5C0064D8FF7F01000000B7
:042A6400D501000890
:042A6800B1010008B0
:102A6C0001000000100000000024F4001000002001
:102A7C00000000000000000000000000000000004A
:102A8C00000000000000000000000000000000003A
:102A9C00000000000000000000000000000000002A
:102AAC00000000000000000000000000000000001A
:102ABC00000000000000000000000000000000000A
:102ACC0000000000000000000000000000000000FA
:04000005080020D1FE
:00000001FF
