:020000040800F2
:1000000000000320B92600083B0800083D0800084E
:100010003F080008410800084308000800000000ED
:10002000000000000000000000000000450800087B
:100030004708000800000000490800084B080008B5
:1000400009270008092700080927000809270008D0
:1000500009270008092700080927000809270008C0
:1000600009270008092700080927000809270008B0
:1000700009270008092700080927000809270008A0
:100080000927000809270008092700080927000890
:100090000927000809270008092700080927000880
:1000A0000927000809270008092700080927000870
:1000B0000927000809270008092700080927000860
:1000C0000927000809270008092700080927000850
:1000D0000927000809270008092700080927000840
:1000E0000927000809270008092700080927000830
:1000F0000927000809270008092700080927000820
:10010000092700080927000809270008092700080F
:1001100009270008092700080927000809270008FF
:1001200055080008092700080927000809270008C2
:1001300009270008092700080927000809270008DF
:1001400009270008092700080927000809270008CF
:1001500009270008092700080927000809270008BF
:1001600009270008092700080927000809270008AF
:1001700009270008092700080927000800000000D7
:10018000092700080927000809270008092700088F
:10019000092700080927000809270008092700087F
:0C01A0000000000000000000092700081B
:1001AC0010B5054C237833B9044B13B10448AFF3A5
:1001BC0000800123237010BD0C0000200000000003
:1001CC006427000808B5034B1BB103490348AFF380
:1001DC00008008BD0000000010000020642700080B
:1001EC0053B94AB9002908BF00281CBF4FF0FF3192
:1001FC004FF0FF3000F072B9ADF1080C6DE904CE90
:10020C0000F006F8DDF804E0DDE9022304B07047E5
:10021C002DE9F047089E04468846002B4BD18A42B4
:10022C00154667D9B2FA82F24AB1C2F1200701FA37
:10023C0002F320FA07F7954047EA030894404FEA87
:10024C00154E230CB8FBFEF71FFA85FC0EFB178826
:10025C0043EA084307FB0CF1994209D9EB1807F163
:10026C00FF3080F01B81994240F21881023F2B44F1
:10027C005B1AA4B2B3FBFEF00EFB103344EA03444A
:10028C0000FB0CFCA44509D92C1900F1FF3380F0BC
:10029C000781A44540F2048102382C4440EA07400F
:1002AC00A4EB0C0400271EB1D4400023C6E9004384
:1002BC003946BDE8F0878B4209D9002E00F0EB805F
:1002CC000027C6E9000138463946BDE8F087B3FA85
:1002DC0083F7002F47D18B4202D3824200F2FA807F
:1002EC00841A61EB030301209846002EE0D0C6E986
:1002FC000048DDE702B9FFDEB2FA82F2002A40F0D4
:10030C008F80491B4FEA154E1FFA85F80127B1FB68
:10031C00FEFC230C0EFB1C1143EA014308FB0CF101
:10032C00994207D9EB180CF1FF3002D2994200F236
:10033C00CD808446591AA3B2B1FBFEF00EFB10140B
:10034C0043EA044408FB00F8A04507D92C1900F136
:10035C00FF3302D2A04500F2B6801846A4EB080485
:10036C0040EA0C409FE7C7F1200CBB4022FA0CFE80
:10037C004EEA030E01FA07F420FA0CF521FA0CF3FD
:10038C004FEA1E482543B3FBF8F92C0C08FB193334
:10039C001FFA8EFA44EA034309FB0AF49C4202FA60
:1003AC0007F200FA07F10BD91EEB030309F1FF303A
:1003BC0080F087809C4240F28480A9F1020973444A
:1003CC001B1BADB2B3FBF8F008FB103345EA03443A
:1003DC0000FB0AFAA24508D91EEB040400F1FF3316
:1003EC006BD2A24569D90238744440EA0940A0FB9B
:1003FC000289A4EB0A044C45C2464B4654D351D057
:10040C00002E69D0B1EB0A0564EB030404FA0CFC72
:10041C00FD40FC404CEA0505C6E90054002747E7BF
:10042C00C2F1200320FA03F7954001FA02F021FAF9
:10043C0003F34FEA154E3843010CB3FBFEF71FFADA
:10044C0085F80EFB173341EA034107FB08F38B4297
:10045C0004FA02F407D9691807F1FF3C2FD28B423A
:10046C002DD9023F2944CB1A81B2B3FBFEF00EFB0F
:10047C00103341EA034100FB08F38B4207D969189A
:10048C0000F1FF3C17D28B4215D902382944C91A06
:10049C0040EA07473BE73746304609E70746E7E6B9
:1004AC001846FBE64145ABD2B8EB020A69EB0E02EB
:1004BC0001381346A4E76046E9E7184695E7674616
:1004CC00D1E781467CE702382C4447E7ACF1020CBB
:1004DC002B442FE7384608E73746E9E6704700BF5C
:1004EC00F0B58BB0002405940694079408940994F5
:1004FC000194254B1A6B42F080021A631A6B02F0BE
:10050C0080020192019A02941A6B42F001021A6362
:10051C001A6B02F001020292029A03941A6B42F0D7
:10052C0010021A631A6B02F010020392039A0494DD
:10053C001A6B42F008021A631B6B03F00803049356
:10054C00049B124F22461821384601F011FE104D23
:10055C0022464FF44071284601F00AFE18230593F9
:10056C00012606960794089405A9384601F010FD5B
:10057C004FF44073059306960794089405A92846F2
:10058C0001F006FD0BB0F0BD003802400000024047
:10059C00000C024000B583B000210191094B1A6B8D
:1005AC0042F480021A631B6B03F480030193019BDA
:1005BC000A46382001F0AEFF382001F0DFFF03B00F
:1005CC005DF804FB0038024008B50B480B4B036088
:1005DC004FF48273436000238360C3600361436103
:1005EC004FF400728261C3610362436283620A2327
:1005FC00C36200F0DDFA08BD700400200030014039
:10060C0008B509484FF0A04303600423436002225D
:10061C00C260002303618261C36103624362C362EF
:10062C00036300F078FF08BD6800002008B5084897
:10063C00084B03604FF4E133436000238360C360D5
:10064C0003610C2242618361C36100F0C4FE08BDEA
:10065C00280000200078004010B594B03022002112
:10066C0008A802F071F800240394049405940694ED
:10067C00079401941C4B1A6C42F080521A641B6C48
:10068C0003F080530193019B0294184A136823F4DE
:10069C00404343F480431360136803F440430293D4
:1006AC00029B032308934FF48032099201220B9290
:1006BC0010220C9202220E924FF480010F910C2109
:1006CC001091482111911292139308A801F040F94E
:1006DC000F2303930494059406940794214603A8CE
:1006EC0001F080FB14B010BD0038024000700040D7
:1006FC0000B583B001F08CFFFFF7AEFFFFF7F0FE03
:10070C00FFF748FFFFF760FFFFF77AFFFFF78EFF59
:10071C00424D01220821284601F02AFD642001F0F7
:10072C00A3FF00268DF807603D4B93E80300009073
:10073C008DF8041032460821284601F019FD394C79
:10074C00642301223146204600F072FA6423012210
:10075C000DF10701204600F04FFC642001F084FFEE
:10076C00642301227D21204600F062FA64230122D9
:10077C000421204600F05CFA642301220DF10701EC
:10078C00204600F039FC0A2301220DF1070126480E
:10079C0000F050FE01220821284601F0E9FC6420FB
:1007AC0001F062FF4FF4FA7001F05EFF00220821A5
:1007BC001A4801F0DDFC1B4D64230122122128464E
:1007CC0000F036FA642301220DF10701284600F0EF
:1007DC0013FC9DF8073002AC04F8083D124E0A23B6
:1007EC0004222146304600F025FE64230122132109
:1007FC00284600F01DFA642301220DF1070128465A
:10080C0000F0FAFB9DF807308DF800300A23042223
:10081C002146304600F00EFEC4E700BF0000024047
:10082C007C270008700400202800002070477047C7
:10083C00FEE7FEE7FEE7FEE770477047704708B536
:10084C0001F000FF08BD000008B5024801F062FD90
:10085C0008BD00BFC804002082B0002100910B4BE2
:10086C005A6C42F480425A645A6C02F480420092F0
:10087C00009A01911A6C42F080521A641B6C03F0BE
:10088C0080530193019B02B0704700BF00380240B7
:10089C0030B589B000230393049305930693079313
:1008AC000268214B9A4201D009B030BD04460025A4
:1008BC00019503F584335A6C42F480525A645A6C95
:1008CC0002F480520192019A02951A6B42F00102D5
:1008DC001A631B6B03F001030293029BE023039347
:1008EC0002230493032306930523079303A90F48BC
:1008FC0001F04EFB0E480F4B03604FF0C06343609A
:10090C008560C5604FF48063036145618561C56195
:10091C000562456201F098FC18B9054BE3649C63D1
:10092C00C2E7FFF783FFF8E7003001400000024008
:10093C00C80400201064024000B589B00023039362
:10094C0004930593069307930268164B9A4202D0C0
:10095C0009B05DF804FB0021019103F5E0331A6C3A
:10096C0042F080421A641A6C02F080420192019AA1
:10097C0002911A6B42F010021A631B6B03F0100306
:10098C000293029B4FF4C07303930223049301233D
:10099C000593032306930823079303A9024801F048
:1009AC00F7FAD5E7007800400010024030B589B066
:1009BC000023039304930593069307930368B3F101
:1009CC00A04F01D009B030BD00250195124C236B0E
:1009DC0043F001032363236B03F001030193019B99
:1009EC004FF4C053039302230493032306930A2367
:1009FC00079303A9094801F0CBFA636B43F080031A
:100A0C0063630295636C43F480436364636C03F427
:100A1C0080430293029BD5E700380240000002405D
:100A2C00F8B505460F4616461C462B689B6837EAF8
:100A3C0003030CBF01230023B34237D0B4F1FF3FB3
:100A4C00F3D001F00BFE069BC01AA04201D2002C81
:100A5C00EBD12A68536823F0E00353606B68B3F55D
:100A6C00827F0BD0AB6AB3F5005F14D0012385F8FD
:100A7C005130002385F85030032018E0AB68B3F5F3
:100A8C00004F02D0B3F5806FECD12A68136823F0C5
:100A9C0040031360E6E72A68136823F400531360DD
:100AAC002A68136843F400531360DFE70020F8BD95
:100ABC0030B585B0164C2468164DA5FB0434640D76
:100ACC004FF47A7505FB04F403944468B4F5827F03
:100ADC000BD0039BC3B1039B013B039303689B683F
:100AEC0013F0800FF5D100230FE00B460446009263
:100AFC0000228021FFF794FF034630B1636D43F071
:100B0C0020036365032300E00023184605B030BDC5
:100B1C0008000020819F5E1610B582B00446406824
:100B2C00B0F5827F16D06068B0F5827F2ED1A368B5
:100B3C00B3F5806F1BD000920B460022802120461B
:100B4C00FFF76EFF034650B3636D43F020036365FC
:100B5C00032324E0A368B3F5004F02D0B3F5806FF4
:100B6C00E1D12068036823F040030360DBE70092C7
:100B7C000B46002201212046FFF752FF034670B1BD
:100B8C00636D43F020036365032308E000920B467A
:100B9C00002201212046FFF743FF034610B91846F7
:100BAC0002B010BD636D43F0200363650323F6E7C9
:100BBC0000283BD010B504460023836290F85130D6
:100BCC00002B2ED0022384F851302268136823F0B6
:100BDC00400313606368A2681343E26813432269FD
:100BEC00134362691343A26902F400721343E2696E
:100BFC001343226A1343A16A22680B431360638B6D
:100C0C0003F00403616A22680B4353602268D369C2
:100C1C0023F40063D36100206065012384F8513014
:100C2C0010BD80F85030FFF733FECBE70120704742
:100C3C002DE9F04182B090F85040012C00F0C380B7
:100C4C001D46174688460446012380F8503001F0B3
:100C5C0005FD064694F85130DBB2012B09D0022079
:100C6C00012384F85130002384F8503002B0BDE8E1
:100C7C00F081B8F1000F00F09880002F00F0978001
:100C8C00032384F8513000236365C4F83080A786B1
:100C9C00E786A363A387E38763642364A368B3F540
:100CAC00004F1CD023681A6812F0400F03D11A6849
:100CBC0042F040021A60E368B3F5006F15D0636828
:100CCC000BB1012F49D1226B236812781A73236B55
:100CDC0001332363E38E013B9BB2E3863DE0226844
:100CEC00136843F480431360DCE763680BB1012F96
:100CFC0015D1226B23681288DA60236B02332363CD
:100D0C00E38E013B9BB2E38609E001F0A7FC801B5C
:100D1C00A84202D3B5F1FF3F4BD1002D4BD0E38E4F
:100D2C009BB2002B2CD023689A6812F0020FECD0E7
:100D3C00226B1288DA60236B02332363E38E013B50
:100D4C009BB2E386EBE701F089FC801BA84202D33F
:100D5C00B5F1FF3F31D1002D31D0E38E9BB27BB189
:100D6C0023689A6812F0020FEDD0226B12781A7376
:100D7C00236B01332363E38E013B9BB2E386ECE7E9
:100D8C00324629462046FFF793FE08B120236365BF
:100D9C00A36833B901932368DA6801929B680193C5
:100DAC00019B636D6BB900205AE7012058E70120C5
:100DBC0056E7032054E7032052E7032050E70320B3
:100DCC004EE701204CE7022050E72DE9F04383B0B9
:100DDC00DDF8288090F85040012C00F00B811D4666
:100DEC0017460E460446012380F8503001F036FCBD
:100DFC00814694F85100C0B26368012815D0B3F550
:100E0C00827F0AD00223012284F85120002284F828
:100E1C005020184603B0BDE8F083A368002B40F0C7
:100E2C00DB80042801D00223EDE7002E00F0D680F1
:100E3C00002F00F0D580002D00F0D48094F85130B4
:100E4C00DBB2042B02D0052384F8513000236365F8
:100E5C00A763E587A5872663E586A5862364636477
:100E6C0023681A6812F0400F03D11A6842F040024E
:100E7C001A60E368B3F5006F10D063680BB1012DF5
:100E8C000AD1226B236812781A73236B0133236304
:100E9C00E38E013B9BB2E386012569E063680BB1ED
:100EAC00012D0AD1226B23681288DA60236B02337E
:100EBC002363E38E013B9BB2E38601251BE0236891
:100ECC009A6812F0010F0DD0E28F92B252B1DA682B
:100EDC00A36B1A80A36B0233A363E38F013B9BB21A
:100EEC00E387012501F0BAFBA0EB0900404502D3D2
:100EFC00B8F1FF3F78D1E38E9BB21BB9E38F9BB265
:100F0C00002B52D023689A6812F0020FD7D0E28ED1
:100F1C0092B2002AD3D0002DD1D0226B1288DA6085
:100F2C00236B02332363E38E013B9BB2E3860025E4
:100F3C00C5E723689A6812F0010F0DD0E28F92B2C8
:100F4C0052B1DA68A36B1A70A36B0133A363E38FFE
:100F5C00013B9BB2E387012501F080FBA0EB09006C
:100F6C00404502D3B8F1FF3F40D1B8F1000F3FD05C
:100F7C00E38E9BB213B9E38F9BB2B3B123689A682B
:100F8C0012F0020FD5D0E28E92B2002AD1D0002DF1
:100F9C00CFD0226B12781A73236B01332363E38E49
:100FAC00013B9BB2E3860025C3E74A4641462046F7
:100FBC00FFF77EFD034618B120236365012322E76A
:100FCC00A268002A7FF41FAF01922268D1680191B8
:100FDC0092680192019A16E7022314E7012312E7A3
:100FEC00012310E701230EE703230CE703230AE791
:100FFC00032308E702230CE72DE9F04182B00446F5
:10100C000F4690461D464368B3F5827F19D094F87D
:10101C005030012B00F09F80012384F8503001F0F8
:10102C001DFB064694F85130DBB2012B15D0022083
:10103C00012384F85130002384F8503002B0BDE80D
:10104C00F0818368002BE2D1042380F851300095A5
:10105C0013460A46FFF7B9FEF0E7002F6DD0B8F142
:10106C00000F6CD0042384F8513000236365A76310
:10107C00A4F83C80A4F83E802363A386E386236413
:10108C006364A368B3F5004F0BD023681A6812F0A1
:10109C00400F03D11A6842F040021A60E36883B132
:1010AC002CE02268136823F480431360EDE701F011
:1010BC00D5FA801BA84202D3B5F1FF3F41D1002DD8
:1010CC0041D0E38F9BB2002B2BD023689A6812F08F
:1010DC00010FECD0A26B1B7B1370A36B0133A363CA
:1010EC00E38F013B9BB2E387EBE701F0B7FA801B80
:1010FC00A84202D3B5F1FF3F27D145B3E38F9BB292
:10110C007BB123689A6812F0010FEED0DA68A36BFA
:10111C001A80A36B0233A363E38F013B9BB2E3877B
:10112C00ECE7324629462046FFF7F6FC08B12023AF
:10113C006365636D6BB900207AE7012078E70120C5
:10114C0076E7032074E7032072E7032070E703209F
:10115C006EE701206CE7022070E700002DE9F04BF0
:10116C0004460268136923F44053C1680B431361AE
:10117C0083680269134342691343C2691A430168C5
:10118C00CB6823F4164323F00C031343CB600268A3
:10119C00536923F4407381690B435361C369B3F5FD
:1011AC00004F3BD00368714A934200F0AB8002F5CC
:1011BC008062934200F0A68000F0CAFE4FF0000956
:1011CC00061849EB090716EB000B47EB090C4FEA25
:1011DC00CC0343EA5B734FEACB0293469C466368AD
:1011EC009A009B0F10EB0B0049EB0C01FEF7F8FF7C
:1011FC005F4DA5FB00325109642202FB1102130161
:10120C003233A5FB03235B0903F0F00202EB01125E
:10121C0003F00F03216813448B60A4E00368534A66
:10122C00934239D002F58062934235D000F090FEA3
:10123C0083464FF0000C06184CEB0C0716EB00081D
:10124C0047EB0C094FEAC90343EA58734FEAC8024B
:10125C009046994662680021921841EB01031BEB02
:10126C0008004CEB0901FEF7BBFF414DA5FB00321A
:10127C005109642202FB1102D3003233A5FB032374
:10128C005B095A0002F4F87202EB011203F0070337
:10129C00216813448B6066E000F06AFE80464FF0D4
:1012AC000009061849EB090716EB000B47EB090C74
:1012BC004FEACC0343EA5B734FEACB0293469C465E
:1012CC0062680021921841EB010318EB0B0049EB0B
:1012DC000C01FEF785FF264DA5FB00325109642257
:1012EC0002FB1102D3003233A5FB03235B095A0026
:1012FC0002F4F87202EB011203F0070321681344A5
:10130C008B6030E000F034FE4FF00009061849EB1A
:10131C00090716EB000B47EB090C4FEACC0343EA29
:10132C005B734FEACB0293469C4663689A009B0F13
:10133C0010EB0B0049EB0C01FEF752FF0C4DA5FB1B
:10134C0000325109642202FB110213013233A5FB56
:10135C0003235B0903F0F00202EB011203F00F030D
:10136C00216813448B60BDE8F08B00BF0010014076
:10137C001F85EB512DE9F04105460F461646984660
:10138C00069C2B681B6837EA03030CBF0123002360
:10139C00B3421DD1B4F1FF3FF3D02CB101F05EF993
:1013AC00A0EB0800A042ECD92A68D36823F4D073D0
:1013BC00D3602A68536923F001035361202385F815
:1013CC00393085F83A30002385F83830032000E0B6
:1013DC000020BDE8F08158B310B5044690F83930C0
:1013EC000BB3242384F839302268D36823F40053D8
:1013FC00D3602046FFF7B2FE2268136923F49043B2
:10140C0013612268536923F02A0353612268D3685D
:10141C0043F40053D3600020E063202384F8393078
:10142C0084F83A3010BD80F83830FFF785FAD8E7E9
:10143C00012070472DE9F04383B01E4690F83930F7
:10144C00DBB2202B56D104460D469046002956D0CF
:10145C00002A56D090F83830012B54D0012380F854
:10146C0038304FF00009C0F83C90212380F8393017
:10147C0001F0F4F80746A4F82480A4F8268084F838
:10148C00389010E000963B46002280212046FFF762
:10149C0071FF002839D12B882268C3F308035360ED
:1014AC002369C3B90235E38C9BB2B3B1E38C013B26
:1014BC009BB2E384A368B3F5805FE3D000963B4610
:1014CC00002280212046FFF755FF00BB2A782368B5
:1014DC005A600135E7E70135E5E700963B46002207
:1014EC0040212046FFF746FF034690B9202284F89E
:1014FC00392000E00223184603B0BDE8F083012335
:10150C00F9E70123F7E70223F5E70323F3E70323C6
:10151C00F1E70323EFE7F0B58BB0002800F08A80E9
:10152C000446056890F8BD3323B3032384F8BD3318
:10153C00EB6B13F4807F01D100232361206800F052
:10154C00DEF8254655F8107B6E460FCD0FC60FCD35
:10155C000FC695E8030086E80300231D0ECB384622
:10156C0000F088F858B1022384F8BD3301252846D1
:10157C000BB0F0BD80F8BC33FFF718FAD5E70021AB
:10158C00206800F0C2F8002315E0D900C81A8200C8
:10159C002244012082F83D0082F83C30A2F842300F
:1015AC00002082F83F0050649064CA1A91002144D4
:1015BC0008650133DBB26568AB42E6D3002315E066
:1015CC00D800C11A8A002244002182F8FD1182F849
:1015DC00FC3182F8FF11C2F80412C2F80812C21AC8
:1015EC0090002044C0F810120133DBB29D42E7D8C2
:1015FC00254655F8107B6E460FCD0FC60FCD0FC686
:10160C0095E8030086E80300231D0ECB384600F056
:10161C00C3F8054620B1022384F8BD330125A6E7A3
:10162C00002384F83830012384F8BD33206800F09F
:10163C0083F99CE701259AE7002301330C4A934276
:10164C0011D80269002AF8DA036943F00103036137
:10165C0000230133064A934207D8026912F0010FA6
:10166C00F7D100207047032070470320704700BF5C
:10167C00400D030084B010B5044603A880E80E00AA
:10168C00089B012B1FD1A36B23F48033A363E36866
:10169C0023F4840323F04003E360E36823F4401352
:1016AC00E3600F9B012B09D02046FFF7C5FF069B7B
:1016BC00012B1BD0BDE8104004B07047E36843F425
:1016CC008013E360F0E7E36843F04003E3602046F7
:1016DC00FFF7B2FF0C9B23B9A36B43F48033A363D6
:1016EC00E5E7A36B23F48033A363E0E7A36843F03F
:1016FC000603A360A36843F02003A360DAE78368C2
:10170C0023F0010383600020704708B5C36823F001
:10171C00C043C360012909D069B9C36843F0804351
:10172C00C360322000F0A0FF002008BDC36843F066
:10173C000053C360F5E70120F7E70000890141F091
:10174C002001016100230133054A934205D8026947
:10175C0012F0200FF7D1002070470320704700BF14
:10176C00400D03001023036100230133054A93420B
:10177C0005D8026912F0100FF7D100207047032032
:10178C00704700BF400D0300D0F800381943C0F873
:10179C00001800207047000084B02DE9F041044689
:1017AC0007A880E80E002546002306E003F140025E
:1017BC0004EB82020021516001330E2BF6D9119BF0
:1017CC00F3B9A36B43F40013A363A36B23F40023BB
:1017DC00A363A36B23F48023A3630023C4F8003E0C
:1017EC0004F50066D4F80038C4F800380C9B012BC3
:1017FC0014D1099B6BB900212046FFF7C5FF11E0FE
:10180C00236823F400132360A36B43F40023A36326
:10181C00E3E701212046FFF7B7FF03E00321204651
:10182C00FFF7B2FF10212046FFF788FF804608B172
:10183C004FF001082046FFF795FF08B14FF0010863
:10184C00002333617361F3610AE0C3B94FF00060A8
:10185C00C2F8000900220A614FF67F328A60013318
:10186C000799994210D905EB431202F51061D2F891
:10187C0000090028E9DB0020C2F80009EAE74FF074
:10188C009040C2F80009E5E700230AE0BBB14FF035
:10189C009047C2F8007B002202614FF67F328260D3
:1018AC000133994210D905EB431202F53060D2F89E
:1018BC00007B002FEADB0027C2F8007BEBE74FF040
:1018CC000067C2F8007BE6E7336923F48073336169
:1018DC000A9B012B1BD00022A2616FF08042626137
:1018EC001BB9A36943F01003A361A269104B134306
:1018FC00A3610D9B1BB1A36943F00803A361119B6A
:10190C00012B0DD04046BDE8F04104B07047094AA8
:10191C003263326B42F4803242F003023263DAE714
:10192C00A36943F0804343F00403A361EAE700BFDB
:10193C0000383C800001800008B5D0F8043843F032
:10194C000203C0F80438032000F08EFE002008BD0E
:10195C00002800F0E48170B582B00446036813F0EF
:10196C00010F3BD0A74B9B6803F00C03042B2CD02E
:10197C00A44B9B6803F00C03082B21D06368B3F5D0
:10198C00803F4FD0B3F5A02F52D09E4B1A6822F453
:10199C0080321A601A6822F480221A606368002B65
:1019AC0050D000F05BFE0546964B1B6813F4003FCD
:1019BC0014D100F053FE401B6428F5D90320B3E189
:1019CC00904B5B6813F4800FD8D08E4B1B6813F4CC
:1019DC00003F03D06368002B00F0A381236813F051
:1019EC00020F55D0874B9B6813F00C0F3ED0854BE4
:1019FC009B6803F00C03082B33D0E368002B68D0F2
:101A0C00814B01221A6000F029FE05467D4B1B68B4
:101A1C0013F0020F54D100F021FE401B0228F5D91F
:101A2C00032081E1774A136843F480331360B5E7F0
:101A3C00744B1A6842F480221A601A6842F480329D
:101A4C001A60ABE700F00AFE05466E4B1B6813F4F8
:101A5C00003FC3D000F002FE401B6428F5D90320E0
:101A6C0062E1684B5B6813F4800FC6D1654B1B6851
:101A7C0013F0020F04D0E368012B01D0012053E1D5
:101A8C00604A136823F0F803216943EAC103136029
:101A9C00236813F0080F40D0636963B35B4B0122DA
:101AAC001A6000F0DBFD0546564B5B6F13F0020F1E
:101ABC0033D100F0D3FD401B0228F5D9032033E1CC
:101ACC00504A136823F0F803216943EAC1031360F9
:101ADC00DEE74D4B00221A6000F0C0FD0546494B75
:101AEC001B6813F0020FD3D000F0B8FD401B022886
:101AFC00F5D9032018E1454B00221A6000F0AEFD29
:101B0C000546404B5B6F13F0020F06D000F0A6FDAC
:101B1C00401B0228F5D9032006E1236813F0040FBB
:101B2C0079D0384B1B6C13F0805F33D100230193B9
:101B3C00344B1A6C42F080521A641B6C03F08053C5
:101B4C000193019B0125324B1B6813F4807F23D03A
:101B5C00A368012B34D0052B38D02A4B1A6F22F0F6
:101B6C0001021A671A6F22F004021A67A368002B8D
:101B7C0036D000F073FD0646224B1B6F13F0020F9C
:101B8C0048D100F06BFD801B41F288339842F3D9A9
:101B9C000320C9E00025D6E71D4A136843F480737F
:101BAC00136000F05BFD0646194B1B6813F4807F35
:101BBC00CED100F053FD801B0228F5D90320B3E0F1
:101BCC00104A136F43F001031367CFE70D4B1A6FE5
:101BDC0042F004021A671A6F42F001021A67C5E755
:101BEC0000F03CFD0646074B1B6F13F0020F11D0A3
:101BFC0000F034FD801B41F288339842F3D9032066
:101C0C0092E000BF0038024000004742800E47427D
:101C1C0000700040EDB9A369002B00F08480454AA8
:101C2C00926802F00C02082A51D0022B17D0424BBA
:101C3C0000221A6000F012FD04463E4B1B6813F0A4
:101C4C00007F42D000F00AFD001B0228F5D90320CA
:101C5C006AE0384A136C23F080531364DBE7364B8D
:101C6C0000221A6000F0FAFC0546324B1B6813F098
:101C7C00007F06D000F0F2FC401B0228F5D90320AF
:101C8C0052E0E369226A1343626A43EA8213A26A4E
:101C9C005208013A43EA0243E26A43EA0263254AE4
:101CAC005360254B01221A6000F0D8FC0446214BEE
:101CBC001B6813F0007F06D100F0D0FC001B02283B
:101CCC00F5D9032030E000202EE000202CE0012B81
:101CDC002CD0184B9B6803F48001E269914201D02F
:101CEC00012021E003F03F02216A8A4201D0012049
:101CFC001AE0616A47F6C0721A408A4201D001208C
:101D0C0012E003F44032A16A8A4201D001200BE0B8
:101D1C0003F07063E26A93420AD0012004E00120D0
:101D2C007047012000E0002002B070BD0120FBE7ED
:101D3C000020F9E70038024060004742264B9B68C0
:101D4C0003F00C03042B44D0082B01D0234870471C
:101D5C002DE9F04B204B5A6802F03F025B6813F4FC
:101D6C00800F13D01C4B5968C1F3881100231C48F9
:101D7C00A1FB0001FEF734FA174B5B68C3F3014378
:101D8C0001335B00B0FBF3F0BDE8F08B124B5B68EA
:101D9C00C3F388131E4600275C010025E41A65EB8B
:101DAC000705A90141EA9461A001001B61EB050143
:101DBC00CB0043EA5073C400A01943EB07018B021C
:101DCC0043EA90538402204619460023FEF708FA92
:101DDC00D2E70348704700BF003802400024F400EB
:101DEC0000366E01002800F09E8070B50446504B02
:101DFC001B6803F00F038B4209D2CBB24C4A137011
:101E0C00136803F00F038B4201D0012070BD2368CF
:101E1C0013F0020F17D013F0040F04D0454A936847
:101E2C0043F4E0539360236813F0080F04D0414A45
:101E3C00936843F4604393603E4A936823F0F00345
:101E4C00A068034393600D46236813F0010F32D052
:101E5C006368012B21D09A1E012A25D9354A1268B4
:101E6C0012F0020F61D033498A6822F00302134347
:101E7C008B6000F0F3FB06462E4B9B6803F00C03C3
:101E8C006268B3EB820F16D000F0E8FB801B41F2C6
:101E9C0088339842F0D90320B8E7264A126812F426
:101EAC00003FE0D10120B1E7224A126812F0007F16
:101EBC00D9D10120AAE71E4B1B6803F00F03AB42DC
:101ECC0009D9EAB21A4B1A701B6803F00F03AB4224
:101EDC0001D001209AE7236813F0040F06D0154AAD
:101EEC00936823F4E053E1680B439360236813F089
:101EFC00080F07D00F4A936823F46043216943EA23
:101F0C00C1039360FFF71AFF0A4B9B68C3F30313DB
:101F1C00094AD35CD840094B1860094B186800F08B
:101F2C0051FB002072E70120704701206EE700BFD3
:101F3C00003C0240003802408C27000808000020BA
:101F4C0004000020014B1868704700BF08000020F7
:101F5C0008B5FFF7F7FF044B9B68C3F38223034AD2
:101F6C00D35CD84008BD00BF003802409C27000855
:101F7C0008B5FFF7E7FF044B9B68C3F34233034AF2
:101F8C00D35CD84008BD00BF003802409C27000835
:101F9C0000230F2B00F2E380F0B583B039E0092267
:101FAC0000E00022AA403A4302346D4D45F824204B
:101FBC006C4A1468F24302EA04054F6817F4803F38
:101FCC0001D046EA0405674C2560646802EA040502
:101FDC004F6817F4003F01D046EA0405614C656078
:101FEC00A46802EA04054F6817F4801F01D046EA82
:101FFC0004055C4CA560E46822404D6815F4001F94
:10200C0001D046EA0402574CE26001330F2B00F278
:10201C00A48001229A400C6804EA0206B242F4D170
:10202C004C68651E012D03D9112C01D0122C12D134
:10203C0085685F000324BC4025EA0405CC68BC40DD
:10204C002C438460456825EA02054C68C4F30012F1
:10205C009A402A434260C4685F000322BA40D243CC
:10206C0014408D68BD402543C5604C68022C01D0DE
:10207C00122C13D1DD08083550F825E003F00704C5
:10208C004FEA840C0F2404FA0CF42EEA040E0C69AB
:10209C0004FA0CF444EA0E0440F82540046822408B
:1020AC004C6804F00304BC40224302604A6812F0FE
:1020BC00805FAAD0002201922B4A546C44F48044D5
:1020CC005464526C02F480420192019A9C08A51C43
:1020DC00234A52F8257003F0030295000F22AA4000
:1020EC0027EA0207214A90423FF45BAF02F5806277
:1020FC00904222D002F58062904220D002F580629C
:10210C0090421ED002F5806290421CD002F5806293
:10211C0090421AD002F58062904218D002F580628B
:10212C00904216D002F58062904214D002F5806283
:10213C0090423FF434AF0A2234E7012232E7022204
:10214C0030E703222EE704222CE705222AE7062299
:10215C0028E7072226E7082224E703B0F0BD7047E2
:10216C0000380140003C01400038024000000240B1
:10217C0012B9090481617047816170470268D3B25A
:10218C00103B0B49A1FB03131B090A49C95CC16530
:10219C00032B06D822F47F7222F003028265806D35
:1021AC00704722F47F7222F0030204328265F6E754
:1021BC00ABAAAAAA84270008836A826992B9012B68
:1021CC000AD01BB1022B01D000207047C36A13F058
:1021DC00807F2CD100207047C36AB3F1C07F28D018
:1021EC0000207047B2F5005F05D0022B29D9032BD4
:1021FC0015D000207047032B03D8DFE803F01C0434
:10220C001C0A00207047C36A13F0807F15D1002090
:10221C007047C36AB3F1C07F11D000207047C36A06
:10222C0013F0807F01D001207047002070470120FF
:10223C007047012070470120704701207047012032
:10224C00704701207047000070B5044600F006FA94
:10225C00002C5BD00546002384F83430022384F82C
:10226C0035302268136823F00103136023681A6861
:10227C0012F0010F0AD000F0F1F9401B0528F5D936
:10228C0020236365032084F8350070BD1A6820484C
:10229C0010406168A2680A43E1680A4321690A4355
:1022AC0061690A43A1690A43E1690A43216A0A4345
:1022BC000243616A04291ED01A602668756925F0EC
:1022CC000705636A1D43042B07D1A36A1D43E36A08
:1022DC001BB12046FFF770FF90B975612046FFF7E0
:1022EC004DFFE26D3F239340836000206065012326
:1022FC0084F83530C9E7E16A206B01430A43DBE718
:10230C0040236365012084F83500BEE70120BCE75B
:10231C003F8010F0F0B583B0044600230193724B5C
:10232C001D68724BA3FB0535AD0A876D3E68C26D07
:10233C0008239340334210D003681A6812F0040F3C
:10234C000BD01A6822F004021A60C26D0823934065
:10235C00BB60436D43F001034365E26D0123934081
:10236C00334209D02268526912F0800F04D0BB604E
:10237C00636D43F002036365E26D042393403342C3
:10238C0009D02268126812F0020F04D0BB60636D92
:10239C0043F004036365E26D10239340334224D071
:1023AC002268126812F0080F1FD0BB6023681A68ED
:1023BC0012F4802F0DD01B6813F4002F04D1236C62
:1023CC009BB12046984710E0A36C73B12046984708
:1023DC000BE01A6812F4807F03D11A6822F008020D
:1023EC001A60236C0BB120469847E26D2023934072
:1023FC00334255D02268126812F0100F50D0BB60D7
:10240C0094F83530DBB2052B0ED023681A6812F421
:10241C00802F33D01B6813F4002F2AD1636C002B50
:10242C003ED0204698473BE02268136823F0160301
:10243C0013602268536923F080035361236CA3B1AA
:10244C002268136823F008031360E26D3F23934066
:10245C00BB60002384F83430012384F83530236DBD
:10246C00002B3FD0204698473CE0A36C002BE7D1D3
:10247C00EBE7E36BA3B12046984711E01A6812F41E
:10248C00807F09D11A6822F010021A60002384F8A8
:10249C003430012384F83530E36B0BB12046984778
:1024AC00636DFBB1636D13F0010F17D0052384F836
:1024BC0035302268136823F001031360019B01334C
:1024CC000193AB4204D823681B6813F0010FF5D1BC
:1024DC00002384F83430012384F83530E36C0BB1DD
:1024EC002046984703B0F0BD08000020B5814E1B74
:1024FC00074AD36823F4E0631B041B0C000200F4AE
:10250C00E060184340F0BF6040F40030D06070478A
:10251C0000ED00E030B4174BDB68C3F30223C3F1CA
:10252C000704042C28BF04241D1D062D18D9033BB9
:10253C004FF0FF3505FA04F421EA0401994005FA3D
:10254C0003F322EA0303194300280BDB0901C9B288
:10255C0000F1604000F5614080F8001330BC70471A
:10256C000023E5E700F00F000901C9B2024B195432
:10257C00F4E700BF00ED00E014ED00E0002807DBFD
:10258C0000F01F02400901239340024A42F8203018
:10259C00704700BF00E100E00138B0F1807F0AD243
:1025AC00064B5860064AF02182F8231000209860F0
:1025BC0007221A6070470120704700BF10E000E04E
:1025CC0000ED00E010B504460E4B18784FF47A730A
:1025DC00B3FBF0F30C4A1068B0FBF3F0FFF7DCFF31
:1025EC0068B90F2C01D901200AE0002221464FF0D6
:1025FC00FF30FFF78FFF054B1C60002000E001202F
:10260C0010BD00BF000000200800002004000020C6
:10261C0008B50B4B1A6842F400721A601A6842F43F
:10262C0080621A601A6842F480721A600320FFF705
:10263C005FFF0020FFF7C6FFFEF70EF9002008BD74
:10264C00003C0240034A1168034B1B780B44136097
:10265C00704700BF2805002000000020014B1868BF
:10266C00704700BF2805002038B50446FFF7F6FF79
:10267C000546B4F1FF3F02D0044B1B781C44FFF716
:10268C00EDFF401BA042FAD338BD00BF0000002074
:10269C00054BD3F8882042F47002C3F888204FF021
:1026AC0000629A60704700BF00ED00E0DFF834D0A4
:1026BC00002103E00C4B5B58435004310B480C4B8E
:1026CC0042189A42F6D30B4A02E0002342F8043B2C
:1026DC00094B9A42F9D3FFF7DBFF00F011F8FEF734
:1026EC0007F8704700000320B42700080000002002
:1026FC000C0000200C0000202C050020FEE7000040
:10270C0070B50D4E0D4CA41BA4100025A54209D18B
:10271C000B4E0C4C00F020F8A41BA4100025A54275
:10272C0005D170BD56F8253098470135EEE756F8BF
:10273C00253098470135F2E7AC270008AC27000894
:10274C00AC270008B027000802440346934200D18E
:10275C00704703F8011BF9E7F8B500BFF8BC08BCDB
:10276C009E467047F8B500BFF8BC08BC9E46704743
:10277C00583A0A0D0000000000061016000610164C
:10278C000000000000000000010203040607080915
:08279C0000000000010203042B
:0827A40078DAFF7F010000005C
:0427AC00D10100084F
:0427B000AD0100086F
:0C27B40001000000100000000024F400F0
:04000005080026B910
:00000001FF
